{
  "_format": "hh-sol-artifact-1",
  "contractName": "TestFlashSwap",
  "sourceName": "contracts/TestFlashSwap.sol",
  "abi": [
    {
      "inputs": [
        {
          "internalType": "address",
          "name": "borrow",
          "type": "address"
        }
      ],
      "name": "logState",
      "outputs": [],
      "stateMutability": "view",
      "type": "function"
    },
    {
      "inputs": [
        {
          "internalType": "address",
          "name": "borrow",
          "type": "address"
        },
        {
          "internalType": "uint256",
          "name": "amount",
          "type": "uint256"
        }
      ],
      "name": "runFlashSwap",
      "outputs": [],
      "stateMutability": "nonpayable",
      "type": "function"
    },
    {
      "inputs": [
        {
          "internalType": "address",
          "name": "from",
          "type": "address"
        },
        {
          "internalType": "address",
          "name": "to",
          "type": "address"
        },
        {
          "internalType": "uint256",
          "name": "amountFrom",
          "type": "uint256"
        }
      ],
      "name": "runSwap",
      "outputs": [
        {
          "internalType": "uint256",
          "name": "amountTo",
          "type": "uint256"
        }
      ],
      "stateMutability": "nonpayable",
      "type": "function"
    },
    {
      "inputs": [
        {
          "internalType": "address",
          "name": "sender",
          "type": "address"
        },
        {
          "internalType": "uint256",
          "name": "amount0",
          "type": "uint256"
        },
        {
          "internalType": "uint256",
          "name": "amount1",
          "type": "uint256"
        },
        {
          "internalType": "bytes",
          "name": "data",
          "type": "bytes"
        }
      ],
      "name": "uniswapV2Call",
      "outputs": [],
      "stateMutability": "nonpayable",
      "type": "function"
    }
  ],
  "bytecode": "0x608060405234801561001057600080fd5b5061219c806100206000396000f3fe608060405234801561001057600080fd5b506004361061004c5760003560e01c806310d1e85c146100515780631cb9c2d51461006d578063823b43511461008957806385fe69dc146100a5575b600080fd5b61006b600480360381019061006691906117aa565b6100d5565b005b61008760048036038101906100829190611832565b6109bc565b005b6100a3600480360381019061009e919061185f565b610d38565b005b6100bf60048036038101906100ba919061189f565b61105a565b6040516100cc9190611901565b60405180910390f35b60008414806100e45750600083145b610123576040517f08c379a000000000000000000000000000000000000000000000000000000000815260040161011a9061199f565b60405180910390fd5b60003373ffffffffffffffffffffffffffffffffffffffff16630dfe16816040518163ffffffff1660e01b8152600401602060405180830381865afa158015610170573d6000803e3d6000fd5b505050506040513d601f19601f8201168201806040525081019061019491906119d4565b905060003373ffffffffffffffffffffffffffffffffffffffff1663d21220a76040518163ffffffff1660e01b8152600401602060405180830381865afa1580156101e3573d6000803e3d6000fd5b505050506040513d601f19601f8201168201806040525081019061020791906119d4565b905073c02aaa39b223fe8d0a0e5c4f27ead9083c756cc273ffffffffffffffffffffffffffffffffffffffff168273ffffffffffffffffffffffffffffffffffffffff161480610296575073c02aaa39b223fe8d0a0e5c4f27ead9083c756cc273ffffffffffffffffffffffffffffffffffffffff168173ffffffffffffffffffffffffffffffffffffffff16145b6102d5576040517f08c379a00000000000000000000000000000000000000000000000000000000081526004016102cc90611a73565b60405180910390fd5b6000735c69bee701ef814a2b6a3edd4b1652cb9cc5aa6f73ffffffffffffffffffffffffffffffffffffffff1663e6a4390584846040518363ffffffff1660e01b8152600401610326929190611aa2565b602060405180830381865afa158015610343573d6000803e3d6000fd5b505050506040513d601f19601f8201168201806040525081019061036791906119d4565b90508073ffffffffffffffffffffffffffffffffffffffff163373ffffffffffffffffffffffffffffffffffffffff16146103d7576040517f08c379a00000000000000000000000000000000000000000000000000000000081526004016103ce90611b17565b60405180910390fd5b8773ffffffffffffffffffffffffffffffffffffffff163073ffffffffffffffffffffffffffffffffffffffff1614610445576040517f08c379a000000000000000000000000000000000000000000000000000000000815260040161043c90611b83565b60405180910390fd5b600085858101906104569190611be1565b905073c02aaa39b223fe8d0a0e5c4f27ead9083c756cc273ffffffffffffffffffffffffffffffffffffffff168173ffffffffffffffffffffffffffffffffffffffff16036104da576040517f08c379a00000000000000000000000000000000000000000000000000000000081526004016104d190611a73565b60405180910390fd5b600087896104e89190611c3d565b90503073ffffffffffffffffffffffffffffffffffffffff16631cb9c2d5836040518263ffffffff1660e01b81526004016105239190611c71565b60006040518083038186803b15801561053b57600080fd5b505afa15801561054f573d6000803e3d6000fd5b505050503073ffffffffffffffffffffffffffffffffffffffff166385fe69dc73c02aaa39b223fe8d0a0e5c4f27ead9083c756cc273514910771af9ca656af840dff83e8264ecf986ca846040518463ffffffff1660e01b81526004016105b893929190611c8c565b6020604051808303816000875af11580156105d7573d6000803e3d6000fd5b505050506040513d601f19601f820116820180604052508101906105fb9190611cd8565b90503073ffffffffffffffffffffffffffffffffffffffff16631cb9c2d5836040518263ffffffff1660e01b81526004016106369190611c71565b60006040518083038186803b15801561064e57600080fd5b505afa158015610662573d6000803e3d6000fd5b505050503073ffffffffffffffffffffffffffffffffffffffff166385fe69dc73514910771af9ca656af840dff83e8264ecf986ca736b175474e89094c44da98b954eedeac495271d0f846040518463ffffffff1660e01b81526004016106cb93929190611c8c565b6020604051808303816000875af11580156106ea573d6000803e3d6000fd5b505050506040513d601f19601f8201168201806040525081019061070e9190611cd8565b90503073ffffffffffffffffffffffffffffffffffffffff16631cb9c2d5836040518263ffffffff1660e01b81526004016107499190611c71565b60006040518083038186803b15801561076157600080fd5b505afa158015610775573d6000803e3d6000fd5b505050503073ffffffffffffffffffffffffffffffffffffffff166385fe69dc736b175474e89094c44da98b954eedeac495271d0f73c02aaa39b223fe8d0a0e5c4f27ead9083c756cc2846040518463ffffffff1660e01b81526004016107de93929190611c8c565b6020604051808303816000875af11580156107fd573d6000803e3d6000fd5b505050506040513d601f19601f820116820180604052508101906108219190611cd8565b90503073ffffffffffffffffffffffffffffffffffffffff16631cb9c2d5836040518263ffffffff1660e01b815260040161085c9190611c71565b60006040518083038186803b15801561087457600080fd5b505afa158015610888573d6000803e3d6000fd5b50505050600060016103e56003846108a09190611d05565b6108aa9190611d76565b6108b49190611c3d565b9050600081836108c49190611c3d565b90508373ffffffffffffffffffffffffffffffffffffffff1663a9059cbb86836040518363ffffffff1660e01b8152600401610901929190611da7565b6020604051808303816000875af1158015610920573d6000803e3d6000fd5b505050506040513d601f19601f820116820180604052508101906109449190611e08565b503073ffffffffffffffffffffffffffffffffffffffff16631cb9c2d5856040518263ffffffff1660e01b815260040161097e9190611c71565b60006040518083038186803b15801561099657600080fd5b505afa1580156109aa573d6000803e3d6000fd5b50505050505050505050505050505050565b6000819050600073c02aaa39b223fe8d0a0e5c4f27ead9083c756cc29050600073514910771af9ca656af840dff83e8264ecf986ca90506000736b175474e89094c44da98b954eedeac495271d0f90506000309050610a506040518060400160405280601d81526020017f202020202020466f72206f776e65723a205b25735d2077616c6c65743a00000081525082611546565b610b086040518060400160405280601981526020017f202020202020202020202020424f52524f57203d205b25645d000000000000008152508673ffffffffffffffffffffffffffffffffffffffff166370a08231846040518263ffffffff1660e01b8152600401610ac29190611c71565b602060405180830381865afa158015610adf573d6000803e3d6000fd5b505050506040513d601f19601f82011682018060405250810190610b039190611cd8565b6115e2565b610bc06040518060400160405280601781526020017f20202020202020202020202077455448203d205b25645d0000000000000000008152508573ffffffffffffffffffffffffffffffffffffffff166370a08231846040518263ffffffff1660e01b8152600401610b7a9190611c71565b602060405180830381865afa158015610b97573d6000803e3d6000fd5b505050506040513d601f19601f82011682018060405250810190610bbb9190611cd8565b6115e2565b610c786040518060400160405280601781526020017f2020202020202020202020204c494e4b203d205b25645d0000000000000000008152508473ffffffffffffffffffffffffffffffffffffffff166370a08231846040518263ffffffff1660e01b8152600401610c329190611c71565b602060405180830381865afa158015610c4f573d6000803e3d6000fd5b505050506040513d601f19601f82011682018060405250810190610c739190611cd8565b6115e2565b610d306040518060400160405280601681526020017f202020202020202020202020444149203d205b25645d000000000000000000008152508373ffffffffffffffffffffffffffffffffffffffff166370a08231846040518263ffffffff1660e01b8152600401610cea9190611c71565b602060405180830381865afa158015610d07573d6000803e3d6000fd5b505050506040513d601f19601f82011682018060405250810190610d2b9190611cd8565b6115e2565b505050505050565b6000735c69bee701ef814a2b6a3edd4b1652cb9cc5aa6f73ffffffffffffffffffffffffffffffffffffffff1663e6a439058473c02aaa39b223fe8d0a0e5c4f27ead9083c756cc26040518363ffffffff1660e01b8152600401610d9d929190611aa2565b602060405180830381865afa158015610dba573d6000803e3d6000fd5b505050506040513d601f19601f82011682018060405250810190610dde91906119d4565b9050600073ffffffffffffffffffffffffffffffffffffffff168173ffffffffffffffffffffffffffffffffffffffff1603610e4f576040517f08c379a0000000000000000000000000000000000000000000000000000000008152600401610e4690611e81565b60405180910390fd5b600081905060008173ffffffffffffffffffffffffffffffffffffffff16630dfe16816040518163ffffffff1660e01b8152600401602060405180830381865afa158015610ea1573d6000803e3d6000fd5b505050506040513d601f19601f82011682018060405250810190610ec591906119d4565b905060008273ffffffffffffffffffffffffffffffffffffffff1663d21220a76040518163ffffffff1660e01b8152600401602060405180830381865afa158015610f14573d6000803e3d6000fd5b505050506040513d601f19601f82011682018060405250810190610f3891906119d4565b905060008673ffffffffffffffffffffffffffffffffffffffff168373ffffffffffffffffffffffffffffffffffffffff1603610f76576000610f78565b855b905060008773ffffffffffffffffffffffffffffffffffffffff168373ffffffffffffffffffffffffffffffffffffffff1603610fb6576000610fb8565b865b9050600088604051602001610fcd9190611c71565b60405160208183030381529060405290508573ffffffffffffffffffffffffffffffffffffffff1663022c0d9f848430856040518563ffffffff1660e01b815260040161101d9493929190611f31565b600060405180830381600087803b15801561103757600080fd5b505af115801561104b573d6000803e3d6000fd5b50505050505050505050505050565b600080735c69bee701ef814a2b6a3edd4b1652cb9cc5aa6f73ffffffffffffffffffffffffffffffffffffffff1663e6a4390586866040518363ffffffff1660e01b81526004016110ac929190611aa2565b602060405180830381865afa1580156110c9573d6000803e3d6000fd5b505050506040513d601f19601f820116820180604052508101906110ed91906119d4565b9050600073ffffffffffffffffffffffffffffffffffffffff168173ffffffffffffffffffffffffffffffffffffffff160361115e576040517f08c379a000000000000000000000000000000000000000000000000000000000815260040161115590611e81565b60405180910390fd5b60008173ffffffffffffffffffffffffffffffffffffffff16630dfe16816040518163ffffffff1660e01b8152600401602060405180830381865afa1580156111ab573d6000803e3d6000fd5b505050506040513d601f19601f820116820180604052508101906111cf91906119d4565b905060008273ffffffffffffffffffffffffffffffffffffffff1663d21220a76040518163ffffffff1660e01b8152600401602060405180830381865afa15801561121e573d6000803e3d6000fd5b505050506040513d601f19601f8201168201806040525081019061124291906119d4565b90506000808473ffffffffffffffffffffffffffffffffffffffff16630902f1ac6040518163ffffffff1660e01b8152600401606060405180830381865afa158015611292573d6000803e3d6000fd5b505050506040513d601f19601f820116820180604052508101906112b69190611fff565b50915091508873ffffffffffffffffffffffffffffffffffffffff168473ffffffffffffffffffffffffffffffffffffffff160361135e57866103e56112fc9190611d05565b826dffffffffffffffffffffffffffff166103e861131a9190611d05565b6113249190611c3d565b816dffffffffffffffffffffffffffff16886103e56113439190611d05565b61134d9190611d05565b6113579190611d76565b95506113ca565b866103e561136c9190611d05565b816dffffffffffffffffffffffffffff166103e861138a9190611d05565b6113949190611c3d565b826dffffffffffffffffffffffffffff16886103e56113b39190611d05565b6113bd9190611d05565b6113c79190611d76565b95505b60008973ffffffffffffffffffffffffffffffffffffffff168573ffffffffffffffffffffffffffffffffffffffff1603611406576000611408565b865b905060008a73ffffffffffffffffffffffffffffffffffffffff168573ffffffffffffffffffffffffffffffffffffffff1603611446576000611448565b875b90508a73ffffffffffffffffffffffffffffffffffffffff1663a9059cbb888b6040518363ffffffff1660e01b8152600401611485929190611da7565b6020604051808303816000875af11580156114a4573d6000803e3d6000fd5b505050506040513d601f19601f820116820180604052508101906114c89190611e08565b508673ffffffffffffffffffffffffffffffffffffffff1663022c0d9f8383306040518463ffffffff1660e01b815260040161150693929190612078565b600060405180830381600087803b15801561152057600080fd5b505af1158015611534573d6000803e3d6000fd5b50505050505050505050509392505050565b6115de828260405160240161155c929190612106565b6040516020818303038152906040527f319af333000000000000000000000000000000000000000000000000000000007bffffffffffffffffffffffffffffffffffffffffffffffffffffffff19166020820180517bffffffffffffffffffffffffffffffffffffffffffffffffffffffff838183161783525050505061167e565b5050565b61167a82826040516024016115f8929190612136565b6040516020818303038152906040527fb60e72cc000000000000000000000000000000000000000000000000000000007bffffffffffffffffffffffffffffffffffffffffffffffffffffffff19166020820180517bffffffffffffffffffffffffffffffffffffffffffffffffffffffff838183161783525050505061167e565b5050565b60008151905060006a636f6e736f6c652e6c6f679050602083016000808483855afa5050505050565b600080fd5b600080fd5b600073ffffffffffffffffffffffffffffffffffffffff82169050919050565b60006116dc826116b1565b9050919050565b6116ec816116d1565b81146116f757600080fd5b50565b600081359050611709816116e3565b92915050565b6000819050919050565b6117228161170f565b811461172d57600080fd5b50565b60008135905061173f81611719565b92915050565b600080fd5b600080fd5b600080fd5b60008083601f84011261176a57611769611745565b5b8235905067ffffffffffffffff8111156117875761178661174a565b5b6020830191508360018202830111156117a3576117a261174f565b5b9250929050565b6000806000806000608086880312156117c6576117c56116a7565b5b60006117d4888289016116fa565b95505060206117e588828901611730565b94505060406117f688828901611730565b935050606086013567ffffffffffffffff811115611817576118166116ac565b5b61182388828901611754565b92509250509295509295909350565b600060208284031215611848576118476116a7565b5b6000611856848285016116fa565b91505092915050565b60008060408385031215611876576118756116a7565b5b6000611884858286016116fa565b925050602061189585828601611730565b9150509250929050565b6000806000606084860312156118b8576118b76116a7565b5b60006118c6868287016116fa565b93505060206118d7868287016116fa565b92505060406118e886828701611730565b9150509250925092565b6118fb8161170f565b82525050565b600060208201905061191660008301846118f2565b92915050565b600082825260208201905092915050565b7f57652077616e7420676574206f6e6c79207745544820696e207468697320636f60008201527f6e74726163740000000000000000000000000000000000000000000000000000602082015250565b600061198960268361191c565b91506119948261192d565b604082019050919050565b600060208201905081810360008301526119b88161197c565b9050919050565b6000815190506119ce816116e3565b92915050565b6000602082840312156119ea576119e96116a7565b5b60006119f8848285016119bf565b91505092915050565b7f57652077616e742073776170207745544820696e207468697320636f6e74726160008201527f6374000000000000000000000000000000000000000000000000000000000000602082015250565b6000611a5d60228361191c565b9150611a6882611a01565b604082019050919050565b60006020820190508181036000830152611a8c81611a50565b9050919050565b611a9c816116d1565b82525050565b6000604082019050611ab76000830185611a93565b611ac46020830184611a93565b9392505050565b7f4d6573736167652073656e646572206e6f7420746f6b656e7320706169720000600082015250565b6000611b01601e8361191c565b9150611b0c82611acb565b602082019050919050565b60006020820190508181036000830152611b3081611af4565b9050919050565b7f53656e646572206e6f7420657175616c20746869732061646472657373000000600082015250565b6000611b6d601d8361191c565b9150611b7882611b37565b602082019050919050565b60006020820190508181036000830152611b9c81611b60565b9050919050565b6000611bae826116b1565b9050919050565b611bbe81611ba3565b8114611bc957600080fd5b50565b600081359050611bdb81611bb5565b92915050565b600060208284031215611bf757611bf66116a7565b5b6000611c0584828501611bcc565b91505092915050565b7f4e487b7100000000000000000000000000000000000000000000000000000000600052601160045260246000fd5b6000611c488261170f565b9150611c538361170f565b9250828201905080821115611c6b57611c6a611c0e565b5b92915050565b6000602082019050611c866000830184611a93565b92915050565b6000606082019050611ca16000830186611a93565b611cae6020830185611a93565b611cbb60408301846118f2565b949350505050565b600081519050611cd281611719565b92915050565b600060208284031215611cee57611ced6116a7565b5b6000611cfc84828501611cc3565b91505092915050565b6000611d108261170f565b9150611d1b8361170f565b9250828202611d298161170f565b91508282048414831517611d4057611d3f611c0e565b5b5092915050565b7f4e487b7100000000000000000000000000000000000000000000000000000000600052601260045260246000fd5b6000611d818261170f565b9150611d8c8361170f565b925082611d9c57611d9b611d47565b5b828204905092915050565b6000604082019050611dbc6000830185611a93565b611dc960208301846118f2565b9392505050565b60008115159050919050565b611de581611dd0565b8114611df057600080fd5b50565b600081519050611e0281611ddc565b92915050565b600060208284031215611e1e57611e1d6116a7565b5b6000611e2c84828501611df3565b91505092915050565b7f7061697220616464726573732069732030000000000000000000000000000000600082015250565b6000611e6b60118361191c565b9150611e7682611e35565b602082019050919050565b60006020820190508181036000830152611e9a81611e5e565b9050919050565b600081519050919050565b600082825260208201905092915050565b60005b83811015611edb578082015181840152602081019050611ec0565b60008484015250505050565b6000601f19601f8301169050919050565b6000611f0382611ea1565b611f0d8185611eac565b9350611f1d818560208601611ebd565b611f2681611ee7565b840191505092915050565b6000608082019050611f4660008301876118f2565b611f5360208301866118f2565b611f606040830185611a93565b8181036060830152611f728184611ef8565b905095945050505050565b60006dffffffffffffffffffffffffffff82169050919050565b611fa081611f7d565b8114611fab57600080fd5b50565b600081519050611fbd81611f97565b92915050565b600063ffffffff82169050919050565b611fdc81611fc3565b8114611fe757600080fd5b50565b600081519050611ff981611fd3565b92915050565b600080600060608486031215612018576120176116a7565b5b600061202686828701611fae565b935050602061203786828701611fae565b925050604061204886828701611fea565b9150509250925092565b50565b6000612062600083611eac565b915061206d82612052565b600082019050919050565b600060808201905061208d60008301866118f2565b61209a60208301856118f2565b6120a76040830184611a93565b81810360608301526120b881612055565b9050949350505050565b600081519050919050565b60006120d8826120c2565b6120e2818561191c565b93506120f2818560208601611ebd565b6120fb81611ee7565b840191505092915050565b6000604082019050818103600083015261212081856120cd565b905061212f6020830184611a93565b9392505050565b6000604082019050818103600083015261215081856120cd565b905061215f60208301846118f2565b939250505056fea2646970667358221220be4170984c1d0eddb988b4fcd6a742f885607d56bb31548b5bdf811cf39c1bdf64736f6c63430008110033",
  "linkReferences": {},
  "deployedLinkReferences": {}
}